:100000000C9434000C943E000C943E000C943E0082
:100010000C943E000C943E000C943E000C943E0068
:100020000C943E000C943E000C943E000C943E0058
:100030000C943E000C943E000C943E000C943E0048
:100040000C943E000C943E000C943E000C943E0038
:100050000C943E000C943E000C943E000C943E0028
:100060000C943E000C943E0011241FBECFEFD8E04C
:10007000DEBFCDBF0E9440000C9477000C940000BE
:10008000209A8AB181708AB9589A8AB180718AB9E6
:100090005C9A40E951E0489910C04C991BC0289ADD
:1000A00020E030E0CA010197F1F72F5F3F4F87E072
:1000B000203D3807B9F7489BF0CF289820E030E082
:1000C000CA010197F1F72F5F3F4F87E0203D3807C6
:1000D000B9F7E1CF289820E030E0CA010197F1F7A5
:1000E0002F5F3F4F87E0203D3807B9F7D4CFF89412
:0200F000FFCF40
:00000001FF
